{
  "contractName": "UserContract",
  "abi": [
    {
      "constant": false,
      "inputs": [
        {
          "name": "name",
          "type": "string"
        },
        {
          "name": "surname",
          "type": "string"
        }
      ],
      "name": "join",
      "outputs": [],
      "payable": false,
      "stateMutability": "nonpayable",
      "type": "function"
    },
    {
      "constant": true,
      "inputs": [
        {
          "name": "addr",
          "type": "address"
        }
      ],
      "name": "getUser",
      "outputs": [
        {
          "name": "",
          "type": "string"
        },
        {
          "name": "",
          "type": "string"
        }
      ],
      "payable": false,
      "stateMutability": "view",
      "type": "function"
    },
    {
      "constant": true,
      "inputs": [],
      "name": "totalUsers",
      "outputs": [
        {
          "name": "",
          "type": "uint256"
        }
      ],
      "payable": false,
      "stateMutability": "view",
      "type": "function"
    }
  ],
  "bytecode": "0x608060405234801561001057600080fd5b50610791806100206000396000f300608060405260043610610057576000357c0100000000000000000000000000000000000000000000000000000000900463ffffffff16806329803b211461005c5780636f77926b1461010b578063bff1f9e114610233575b600080fd5b34801561006857600080fd5b50610109600480360381019080803590602001908201803590602001908080601f0160208091040260200160405190810160405280939291908181526020018383808284378201915050505050509192919290803590602001908201803590602001908080601f016020809104026020016040519081016040528093929190818152602001838380828437820191505050505050919291929050505061025e565b005b34801561011757600080fd5b5061014c600480360381019080803573ffffffffffffffffffffffffffffffffffffffff169060200190929190505050610412565b604051808060200180602001838103835285818151815260200191508051906020019080838360005b83811015610190578082015181840152602081019050610175565b50505050905090810190601f1680156101bd5780820380516001836020036101000a031916815260200191505b50838103825284818151815260200191508051906020019080838360005b838110156101f65780820151818401526020810190506101db565b50505050905090810190601f1680156102235780820380516001836020036101000a031916815260200191505b5094505050505060405180910390f35b34801561023f57600080fd5b50610248610643565b6040518082815260200191505060405180910390f35b600061026933610650565b1515156102de576040517f08c379a000000000000000000000000000000000000000000000000000000000815260040180806020018281038252601a8152602001807f4164647265737320616c7265616479207265676973746572656400000000000081525060200191505060405180910390fd5b6000803373ffffffffffffffffffffffffffffffffffffffff1673ffffffffffffffffffffffffffffffffffffffff1681526020019081526020016000209050828160000190805190602001906103369291906106a6565b508181600101908051906020019061034f9291906106a6565b5060018060003373ffffffffffffffffffffffffffffffffffffffff1673ffffffffffffffffffffffffffffffffffffffff16815260200190815260200160002060006101000a81548160ff02191690831515021790555060023390806001815401808255809150509060018203906000526020600020016000909192909190916101000a81548173ffffffffffffffffffffffffffffffffffffffff021916908373ffffffffffffffffffffffffffffffffffffffff16021790555050505050565b60608061041d610726565b61042633610650565b151561049a576040517f08c379a00000000000000000000000000000000000000000000000000000000081526004018080602001828103825260148152602001807f556e72656769737465726564204164647265737300000000000000000000000081525060200191505060405180910390fd5b6000808573ffffffffffffffffffffffffffffffffffffffff1673ffffffffffffffffffffffffffffffffffffffff168152602001908152602001600020604080519081016040529081600082018054600181600116156101000203166002900480601f01602080910402602001604051908101604052809291908181526020018280546001816001161561010002031660029004801561057c5780601f106105515761010080835404028352916020019161057c565b820191906000526020600020905b81548152906001019060200180831161055f57829003601f168201915b50505050508152602001600182018054600181600116156101000203166002900480601f01602080910402602001604051908101604052809291908181526020018280546001816001161561010002031660029004801561061e5780601f106105f35761010080835404028352916020019161061e565b820191906000526020600020905b81548152906001019060200180831161060157829003601f168201915b5050505050815250509050806000015181602001518191508090509250925050915091565b6000600280549050905090565b6000600160008373ffffffffffffffffffffffffffffffffffffffff1673ffffffffffffffffffffffffffffffffffffffff16815260200190815260200160002060009054906101000a900460ff169050919050565b828054600181600116156101000203166002900490600052602060002090601f016020900481019282601f106106e757805160ff1916838001178555610715565b82800160010185558215610715579182015b828111156107145782518255916020019190600101906106f9565b5b5090506107229190610740565b5090565b604080519081016040528060608152602001606081525090565b61076291905b8082111561075e576000816000905550600101610746565b5090565b905600a165627a7a72305820f6227b2534222deb82be0ec03a9d782521b0a4f045c8f48f58921486373c18230029",
  "source": "pragma solidity >=0.4.21 <0.6.0;\n\ncontract UserContract {\n\n    //Creacion de estructura de usuario\n    struct User {\n        string name;\n        string surname;\n    }\n\n    //Para cada dirección representaremos un usuario\n    mapping(address => User) private usuarios;\n    //Mapping de tipo direcciona  bool\n    mapping(address => bool) private usuariosRegistrados;\n    //Array con los usuarios\n    address[]total;\n    //Creación de eventos\n    //event onUserJoined(address,string);\n\n    //funcion para registrarse en el contrato\n    function join(string memory name,string memory surname) public {\n        require(!userJoined(msg.sender),\"Address already registered\");\n        User storage userActual = usuarios[msg.sender];\n        userActual.name = name;\n        userActual.surname = surname;\n        usuariosRegistrados[msg.sender] = true;\n        total.push(msg.sender);\n        //emit onUserJoined(msg.sender,string(abi.encodePacked(name,\" \",surname)));\n    }\n\n    //funcion para recuperar nombre y apellido usuario\n    function getUser(address addr) public view returns(string memory,string memory) {\n        require(userJoined(msg.sender),\"Unregistered Address\");\n        User memory userActual = usuarios[addr];\n        return (userActual.name,userActual.surname);\n    }\n\n    function userJoined(address addr) private view returns(bool) {\n        return usuariosRegistrados[addr];\n    }\n\n    //funcion para conocer el número de usuarios registrados\n    function totalUsers() public view returns(uint) {\n        return total.length;\n    }\n\n\n}",
  "sourcePath": "/Users/ivan/Documents/GitHub/BlockChain-With-Ethereum/ethereum-truffle/contracts/UserContract.sol",
  "compiler": {
    "name": "solc",
    "version": "0.4.25+commit.59dbf8f1.Emscripten.clang"
  },
  "schemaVersion": "2.0.2",
  "updatedAt": "2019-08-01T15:10:44.592Z"
}