{
    "contractName": "UserContract",
    "abi": [
        {
            "constant": false,
            "inputs": [
                {
                    "name": "name",
                    "type": "string"
                },
                {
                    "name": "surname",
                    "type": "string"
                }
            ],
            "name": "join",
            "outputs": [],
            "payable": false,
            "stateMutability": "nonpayable",
            "type": "function"
        },
        {
            "constant": true,
            "inputs": [
                {
                    "name": "addr",
                    "type": "address"
                }
            ],
            "name": "getUser",
            "outputs": [
                {
                    "name": "",
                    "type": "string"
                },
                {
                    "name": "",
                    "type": "string"
                }
            ],
            "payable": false,
            "stateMutability": "view",
            "type": "function"
        },
        {
            "constant": true,
            "inputs": [],
            "name": "totalUsers",
            "outputs": [
                {
                    "name": "",
                    "type": "uint256"
                }
            ],
            "payable": false,
            "stateMutability": "view",
            "type": "function"
        }
    ],
    "bytecode": "608060405234801561001057600080fd5b50610652806100206000396000f3fe608060405234801561001057600080fd5b50600436106100415760003560e01c806329803b21146100465780636f77926b14610175578063bff1f9e114610279575b600080fd5b6101736004803603604081101561005c57600080fd5b81019060208101813564010000000081111561007757600080fd5b82018360208201111561008957600080fd5b803590602001918460018302840111640100000000831117156100ab57600080fd5b91908080601f01602080910402602001604051908101604052809392919081815260200183838082843760009201919091525092959493602081019350359150506401000000008111156100fe57600080fd5b82018360208201111561011057600080fd5b8035906020019184600183028401116401000000008311171561013257600080fd5b91908080601f016020809104026020016040519081016040528093929190818152602001838380828437600092019190915250929550610293945050505050565b005b61019b6004803603602081101561018b57600080fd5b50356001600160a01b0316610386565b604051808060200180602001838103835285818151815260200191508051906020019080838360005b838110156101dc5781810151838201526020016101c4565b50505050905090810190601f1680156102095780820380516001836020036101000a031916815260200191505b50838103825284518152845160209182019186019080838360005b8381101561023c578181015183820152602001610224565b50505050905090810190601f1680156102695780820380516001836020036101000a031916815260200191505b5094505050505060405180910390f35b610281610546565b60408051918252519081900360200190f35b61029c3361054d565b156102ee576040805162461bcd60e51b815260206004820152601a60248201527f4164647265737320616c72656164792072656769737465726564000000000000604482015290519081900360640190fd5b336000908152602081815260409091208351909161031091839186019061056b565b508151610326906001830190602085019061056b565b50503360008181526001602081905260408220805460ff1916821790556002805491820181559091527f405787fa12a823e0f2b7631cc41b3ba8828b3321ca811111fa75cd3aa3bb5ace0180546001600160a01b03191690911790555050565b6060806103923361054d565b6103da576040805162461bcd60e51b8152602060048201526014602482015273556e72656769737465726564204164647265737360601b604482015290519081900360640190fd5b6103e26105e9565b6001600160a01b038416600090815260208181526040918290208251815460026001821615610100026000190190911604601f81018490049093028101606090810185529381018381529093919284928491908401828280156104865780601f1061045b57610100808354040283529160200191610486565b820191906000526020600020905b81548152906001019060200180831161046957829003601f168201915b50505050508152602001600182018054600181600116156101000203166002900480601f0160208091040260200160405190810160405280929190818152602001828054600181600116156101000203166002900480156105285780601f106104fd57610100808354040283529160200191610528565b820191906000526020600020905b81548152906001019060200180831161050b57829003601f168201915b50505091909252505081516020909201519194509092505050915091565b6002545b90565b6001600160a01b031660009081526001602052604090205460ff1690565b828054600181600116156101000203166002900490600052602060002090601f016020900481019282601f106105ac57805160ff19168380011785556105d9565b828001600101855582156105d9579182015b828111156105d95782518255916020019190600101906105be565b506105e5929150610603565b5090565b604051806040016040528060608152602001606081525090565b61054a91905b808211156105e5576000815560010161060956fea265627a7a72305820d684513bbd9436cbffb6bfaa72e83f9f472ddb1fd1bfdd4357023beeab909fde64736f6c634300050a0032",
    "sourcePath": "/Users/ivan/Documents/GitHub/BlockChain-With-Ethereum/ethereum-truffle/contracts/UserContract.sol",
    "compiler": {
        "name": "solc",
        "version": "0.5.10+commit.5a6ea5b1"
    },
    "functionHashes": {
        "getUser(address)": "6f77926b",
        "join(string,string)": "29803b21",
        "totalUsers()": "bff1f9e1"
    },
    "gasEstimates": {
        "creation": {
            "codeDepositCost": "323600",
            "executionCost": "362",
            "totalCost": "323962"
        },
        "external": {
            "getUser(address)": "infinite",
            "join(string,string)": "infinite",
            "totalUsers()": "421"
        },
        "internal": {
            "userJoined(address)": "311"
        }
    }
}