{
    "contractName": "Airline",
    "abi": [
        {
            "constant": true,
            "inputs": [
                {
                    "name": "",
                    "type": "uint256"
                }
            ],
            "name": "flights",
            "outputs": [
                {
                    "name": "name",
                    "type": "string"
                },
                {
                    "name": "price",
                    "type": "uint256"
                }
            ],
            "payable": false,
            "stateMutability": "view",
            "type": "function"
        },
        {
            "constant": true,
            "inputs": [],
            "name": "getRefundableEther",
            "outputs": [
                {
                    "name": "",
                    "type": "uint256"
                }
            ],
            "payable": false,
            "stateMutability": "view",
            "type": "function"
        },
        {
            "constant": true,
            "inputs": [],
            "name": "getAirlineBalance",
            "outputs": [
                {
                    "name": "",
                    "type": "uint256"
                }
            ],
            "payable": false,
            "stateMutability": "view",
            "type": "function"
        },
        {
            "constant": false,
            "inputs": [
                {
                    "name": "fligthIndex",
                    "type": "uint256"
                }
            ],
            "name": "buyFlights",
            "outputs": [],
            "payable": true,
            "stateMutability": "payable",
            "type": "function"
        },
        {
            "constant": true,
            "inputs": [],
            "name": "totalFlights",
            "outputs": [
                {
                    "name": "",
                    "type": "uint256"
                }
            ],
            "payable": false,
            "stateMutability": "view",
            "type": "function"
        },
        {
            "constant": true,
            "inputs": [],
            "name": "owner",
            "outputs": [
                {
                    "name": "",
                    "type": "address"
                }
            ],
            "payable": false,
            "stateMutability": "view",
            "type": "function"
        },
        {
            "constant": false,
            "inputs": [],
            "name": "redeemLoyaltyPoints",
            "outputs": [],
            "payable": false,
            "stateMutability": "nonpayable",
            "type": "function"
        },
        {
            "inputs": [],
            "payable": false,
            "stateMutability": "nonpayable",
            "type": "constructor"
        },
        {
            "anonymous": false,
            "inputs": [
                {
                    "indexed": true,
                    "name": "customer",
                    "type": "address"
                },
                {
                    "indexed": false,
                    "name": "price",
                    "type": "uint256"
                }
            ],
            "name": "FlightPurchased",
            "type": "event"
        }
    ],
    "bytecode": "60806040526706f05b59d3b2000060015534801561001c57600080fd5b5060008054600160a060020a031916331781556040805160808101825260079181019182527f45737061c3b161000000000000000000000000000000000000000000000000006060820152908152673782dace9d90000060208083019190915260028054600181018083559482905283518051919092026000805160206108ff83398151915201926100b2928492910190610275565b506020918201516001918201556040805160808101825260079181019182527f56656e65636961000000000000000000000000000000000000000000000000006060820152908152671bc16d674ec8000081840152600280549283018082556000829052825180519196509294939091026000805160206108ff8339815191520192610142928492910190610275565b5060209182015160019182015560408051608081018252600c9181019182527f546f6d6f72726f776c616e64000000000000000000000000000000000000000060608201529081526729a2241af62c000081840152600280549283018082556000829052825180519196509294939091026000805160206108ff83398151915201926101d2928492910190610275565b506020918201516001918201556040805160808101825260099181019182527f50616c6f20416c746f00000000000000000000000000000000000000000000006060820152908152678ac7230489e8000081840152600280549283018082556000829052825180519196509294939091026000805160206108ff8339815191520192610262928492910190610275565b5060208201518160010155505050610310565b828054600181600116156101000203166002900490600052602060002090601f016020900481019282601f106102b657805160ff19168380011785556102e3565b828001600101855582156102e3579182015b828111156102e35782518255916020019190600101906102c8565b506102ef9291506102f3565b5090565b61030d91905b808211156102ef57600081556001016102f9565b90565b6105e08061031f6000396000f3006080604052600436106100825763ffffffff7c010000000000000000000000000000000000000000000000000000000060003504166315ccf70f81146100875780632411ff731461011e57806329cd30b4146101455780633b2240a01461015a5780634bf02e7a146101675780638da5cb5b1461017c578063f997114f146101ba575b600080fd5b34801561009357600080fd5b5061009f6004356101cf565b6040518080602001838152602001828103825284818151815260200191508051906020019080838360005b838110156100e25781810151838201526020016100ca565b50505050905090810190601f16801561010f5780820380516001836020036101000a031916815260200191505b50935050505060405180910390f35b34801561012a57600080fd5b50610133610283565b60408051918252519081900360200190f35b34801561015157600080fd5b5061013361029e565b610165600435610354565b005b34801561017357600080fd5b506101336104b2565b34801561018857600080fd5b506101916104b9565b6040805173ffffffffffffffffffffffffffffffffffffffff9092168252519081900360200190f35b3480156101c657600080fd5b506101656104d5565b60028054829081106101dd57fe5b60009182526020918290206002918202018054604080516001831615610100026000190190921693909304601f8101859004850282018501909352828152909350918391908301828280156102735780601f1061024857610100808354040283529160200191610273565b820191906000526020600020905b81548152906001019060200180831161025657829003601f168201915b5050505050908060010154905082565b336000908152600360205260409020805460015402905b5090565b60008054819073ffffffffffffffffffffffffffffffffffffffff16331461034d57604080517f08c379a000000000000000000000000000000000000000000000000000000000815260206004820152602760248201527f596f75206e65656420746f20626520746865206f776e657220746f207468652060448201527f4169726c696e6500000000000000000000000000000000000000000000000000606482015290519081900360840190fd5b5050303190565b60008060028381548110151561036657fe5b906000526020600020906002020191508160010154341415156103ea57604080517f08c379a000000000000000000000000000000000000000000000000000000000815260206004820152601460248201527f4e6f7420456e6f75676874205175616e74697479000000000000000000000000604482015290519081900360640190fd5b50336000908152600360209081526040808320805460050181556001808201805482019055600484529184208054808401808355918652939094208554919493869360029182029092019261045292849286929182161561010002600019019091160461051f565b50600191820154908201553360008181526005602090815260409182902080548501905592860154815190815290519193507f8644b0eb56c7a568d35c9f35feeacfcdb42c3cfe3deb99e35d6ac27df853a08c92908290030190a2505050565b6002545b90565b60005473ffffffffffffffffffffffffffffffffffffffff1681565b3360008181526003602052604080822080546001549251919492029283156108fc02918491818181858888f19350505050158015610517573d6000803e3d6000fd5b505060009055565b828054600181600116156101000203166002900490600052602060002090601f016020900481019282601f106105585780548555610594565b8280016001018555821561059457600052602060002091601f016020900482015b82811115610594578254825591600101919060010190610579565b5061029a926104b69250905b8082111561029a57600081556001016105a05600a165627a7a72305820b58904f0c19a64e7858520424858c65c7f5d337df2dc6c78a7fdec3a4486f5520029405787fa12a823e0f2b7631cc41b3ba8828b3321ca811111fa75cd3aa3bb5ace",
    "sourcePath": "/Users/ivan/Documents/GitHub/BlockChain-With-Ethereum/udemy-ethereum-the-airline/contracts/Airline.sol",
    "compiler": {
        "name": "solc",
        "version": "0.4.24+commit.e67f0147"
    },
    "functionHashes": {
        "buyFlights(uint256)": "3b2240a0",
        "flights(uint256)": "15ccf70f",
        "getAirlineBalance()": "29cd30b4",
        "getRefundableEther()": "2411ff73",
        "owner()": "8da5cb5b",
        "redeemLoyaltyPoints()": "f997114f",
        "totalFlights()": "4bf02e7a"
    },
    "gasEstimates": {
        "creation": {
            "codeDepositCost": "300800",
            "executionCost": "infinite",
            "totalCost": "infinite"
        },
        "external": {
            "buyFlights(uint256)": "infinite",
            "flights(uint256)": "infinite",
            "getAirlineBalance()": "868",
            "getRefundableEther()": "691",
            "owner()": "509",
            "redeemLoyaltyPoints()": "infinite",
            "totalFlights()": "473"
        }
    }
}