{
    "contractName": "UserContract",
    "abi": [
        {
            "constant": false,
            "inputs": [
                {
                    "name": "name",
                    "type": "string"
                },
                {
                    "name": "surname",
                    "type": "string"
                }
            ],
            "name": "join",
            "outputs": [],
            "payable": false,
            "stateMutability": "nonpayable",
            "type": "function"
        },
        {
            "constant": true,
            "inputs": [
                {
                    "name": "addr",
                    "type": "address"
                }
            ],
            "name": "getUser",
            "outputs": [
                {
                    "name": "",
                    "type": "string"
                },
                {
                    "name": "",
                    "type": "string"
                }
            ],
            "payable": false,
            "stateMutability": "view",
            "type": "function"
        }
    ],
    "bytecode": "608060405234801561001057600080fd5b5061048d806100206000396000f30060806040526004361061004b5763ffffffff7c010000000000000000000000000000000000000000000000000000000060003504166329803b2181146100505780636f77926b146100e9575b600080fd5b34801561005c57600080fd5b506040805160206004803580820135601f81018490048402850184019095528484526100e794369492936024939284019190819084018382808284375050604080516020601f89358b018035918201839004830284018301909452808352979a9998810197919650918201945092508291508401838280828437509497506101f59650505050505050565b005b3480156100f557600080fd5b5061011773ffffffffffffffffffffffffffffffffffffffff60043516610233565b604051808060200180602001838103835285818151815260200191508051906020019080838360005b83811015610158578181015183820152602001610140565b50505050905090810190601f1680156101855780820380516001836020036101000a031916815260200191505b50838103825284518152845160209182019186019080838360005b838110156101b85781810151838201526020016101a0565b50505050905090810190601f1680156101e55780820380516001836020036101000a031916815260200191505b5094505050505060405180910390f35b33600090815260208181526040909120835190916102179183918601906103af565b50815161022d90600183019060208501906103af565b50505050565b60608061023e61042d565b73ffffffffffffffffffffffffffffffffffffffff8416600090815260208181526040918290208251815460026001821615610100026000190190911604601f81018490049093028101606090810185529381018381529093919284928491908401828280156102ef5780601f106102c4576101008083540402835291602001916102ef565b820191906000526020600020905b8154815290600101906020018083116102d257829003601f168201915b50505050508152602001600182018054600181600116156101000203166002900480601f0160208091040260200160405190810160405280929190818152602001828054600181600116156101000203166002900480156103915780601f1061036657610100808354040283529160200191610391565b820191906000526020600020905b81548152906001019060200180831161037457829003601f168201915b50505091909252505081516020909201519196919550909350505050565b828054600181600116156101000203166002900490600052602060002090601f016020900481019282601f106103f057805160ff191683800117855561041d565b8280016001018555821561041d579182015b8281111561041d578251825591602001919060010190610402565b50610429929150610444565b5090565b604080518082019091526060808252602082015290565b61045e91905b80821115610429576000815560010161044a565b905600a165627a7a72305820d78e8696b003cc90afc219e46f9e4d43c8420fe2d3c2a6281d942aa9c986a9110029",
    "sourcePath": "/Users/ivan/Documents/GitHub/BlockChain-With-Ethereum/Contracts/UserContract.sol",
    "compiler": {
        "name": "solc",
        "version": "0.4.24+commit.e67f0147"
    },
    "functionHashes": {
        "getUser(address)": "6f77926b",
        "join(string,string)": "29803b21"
    },
    "gasEstimates": {
        "creation": {
            "codeDepositCost": "233000",
            "executionCost": "275",
            "totalCost": "233275"
        },
        "external": {
            "getUser(address)": "infinite",
            "join(string,string)": "infinite"
        }
    }
}