{
    "contractName": "Airline",
    "abi": [
        {
            "constant": true,
            "inputs": [
                {
                    "name": "",
                    "type": "uint256"
                }
            ],
            "name": "flights",
            "outputs": [
                {
                    "name": "name",
                    "type": "string"
                },
                {
                    "name": "price",
                    "type": "uint256"
                }
            ],
            "payable": false,
            "stateMutability": "view",
            "type": "function"
        },
        {
            "constant": true,
            "inputs": [],
            "name": "getRefundableEther",
            "outputs": [
                {
                    "name": "",
                    "type": "uint256"
                }
            ],
            "payable": false,
            "stateMutability": "view",
            "type": "function"
        },
        {
            "constant": true,
            "inputs": [],
            "name": "getAirlineBalance",
            "outputs": [
                {
                    "name": "",
                    "type": "uint256"
                }
            ],
            "payable": false,
            "stateMutability": "view",
            "type": "function"
        },
        {
            "constant": false,
            "inputs": [
                {
                    "name": "fligthIndex",
                    "type": "uint256"
                }
            ],
            "name": "buyFlights",
            "outputs": [],
            "payable": true,
            "stateMutability": "payable",
            "type": "function"
        },
        {
            "constant": true,
            "inputs": [
                {
                    "name": "",
                    "type": "address"
                }
            ],
            "name": "customerTotalFligthsMapping",
            "outputs": [
                {
                    "name": "",
                    "type": "uint256"
                }
            ],
            "payable": false,
            "stateMutability": "view",
            "type": "function"
        },
        {
            "constant": true,
            "inputs": [],
            "name": "totalFlights",
            "outputs": [
                {
                    "name": "",
                    "type": "uint256"
                }
            ],
            "payable": false,
            "stateMutability": "view",
            "type": "function"
        },
        {
            "constant": true,
            "inputs": [
                {
                    "name": "",
                    "type": "address"
                }
            ],
            "name": "customersMapping",
            "outputs": [
                {
                    "name": "loyalty_points",
                    "type": "uint256"
                },
                {
                    "name": "total_flights",
                    "type": "uint256"
                }
            ],
            "payable": false,
            "stateMutability": "view",
            "type": "function"
        },
        {
            "constant": true,
            "inputs": [],
            "name": "owner",
            "outputs": [
                {
                    "name": "",
                    "type": "address"
                }
            ],
            "payable": false,
            "stateMutability": "view",
            "type": "function"
        },
        {
            "constant": false,
            "inputs": [],
            "name": "redeemLoyaltyPoints",
            "outputs": [],
            "payable": false,
            "stateMutability": "nonpayable",
            "type": "function"
        },
        {
            "constant": true,
            "inputs": [
                {
                    "name": "",
                    "type": "address"
                },
                {
                    "name": "",
                    "type": "uint256"
                }
            ],
            "name": "fligthsMapping",
            "outputs": [
                {
                    "name": "name",
                    "type": "string"
                },
                {
                    "name": "price",
                    "type": "uint256"
                }
            ],
            "payable": false,
            "stateMutability": "view",
            "type": "function"
        },
        {
            "inputs": [],
            "payable": false,
            "stateMutability": "nonpayable",
            "type": "constructor"
        },
        {
            "anonymous": false,
            "inputs": [
                {
                    "indexed": true,
                    "name": "customer",
                    "type": "address"
                },
                {
                    "indexed": false,
                    "name": "price",
                    "type": "uint256"
                }
            ],
            "name": "FlightPurchased",
            "type": "event"
        }
    ],
    "bytecode": "60806040526706f05b59d3b2000060015534801561001c57600080fd5b50600080546001600160a01b031916331781556040805160808101825260079181019182527f45737061c3b161000000000000000000000000000000000000000000000000006060820152908152673782dace9d9000006020808301919091526002805460018101808355948290528351805191909202600080516020610a2583398151915201926100b2928492910190610275565b506020918201516001918201556040805160808101825260079181019182527f56656e65636961000000000000000000000000000000000000000000000000006060820152908152671bc16d674ec800008184015260028054928301808255600082905282518051919650929493909102600080516020610a258339815191520192610142928492910190610275565b5060209182015160019182015560408051608081018252600c9181019182527f546f6d6f72726f776c616e64000000000000000000000000000000000000000060608201529081526729a2241af62c00008184015260028054928301808255600082905282518051919650929493909102600080516020610a2583398151915201926101d2928492910190610275565b506020918201516001918201556040805160808101825260099181019182527f50616c6f20416c746f00000000000000000000000000000000000000000000006060820152908152678ac7230489e800008184015260028054928301808255600082905282518051919650929493909102600080516020610a258339815191520192610262928492910190610275565b5060208201518160010155505050610310565b828054600181600116156101000203166002900490600052602060002090601f016020900481019282601f106102b657805160ff19168380011785556102e3565b828001600101855582156102e3579182015b828111156102e35782518255916020019190600101906102c8565b506102ef9291506102f3565b5090565b61030d91905b808211156102ef57600081556001016102f9565b90565b6107068061031f6000396000f3fe6080604052600436106100915760003560e01c80634bf02e7a116100595780634bf02e7a146101cd57806388aff306146101e25780638da5cb5b1461022e578063f997114f1461025f578063ff5d0b8a1461027457610091565b806315ccf70f146100965780632411ff731461013f57806329cd30b4146101665780633b2240a01461017b57806345d663591461019a575b600080fd5b3480156100a257600080fd5b506100c0600480360360208110156100b957600080fd5b50356102ad565b6040518080602001838152602001828103825284818151815260200191508051906020019080838360005b838110156101035781810151838201526020016100eb565b50505050905090810190601f1680156101305780820380516001836020036101000a031916815260200191505b50935050505060405180910390f35b34801561014b57600080fd5b50610154610360565b60408051918252519081900360200190f35b34801561017257600080fd5b50610154610378565b6101986004803603602081101561019157600080fd5b50356103c8565b005b3480156101a657600080fd5b50610154600480360360208110156101bd57600080fd5b50356001600160a01b03166104fd565b3480156101d957600080fd5b5061015461050f565b3480156101ee57600080fd5b506102156004803603602081101561020557600080fd5b50356001600160a01b0316610515565b6040805192835260208301919091528051918290030190f35b34801561023a57600080fd5b5061024361052e565b604080516001600160a01b039092168252519081900360200190f35b34801561026b57600080fd5b5061019861053d565b34801561028057600080fd5b506100c06004803603604081101561029757600080fd5b506001600160a01b038135169060200135610587565b600281815481106102ba57fe5b60009182526020918290206002918202018054604080516001831615610100026000190190921693909304601f8101859004850282018501909352828152909350918391908301828280156103505780601f1061032557610100808354040283529160200191610350565b820191906000526020600020905b81548152906001019060200180831161033357829003601f168201915b5050505050908060010154905082565b33600090815260036020526040902054600154025b90565b600080546001600160a01b031633146103c25760405162461bcd60e51b81526004018080602001828103825260278152602001806106ab6027913960400191505060405180910390fd5b50303190565b6000600282815481106103d757fe5b9060005260206000209060020201905080600101543414610436576040805162461bcd60e51b81526020600482015260146024820152734e6f7420456e6f75676874205175616e7469747960601b604482015290519081900360640190fd5b336000908152600360209081526040808320805460050181556001808201805482019055600484529184208054808401808355918652939094208554919493869360029182029092019261049d92849286929182161561010002600019019091160461060b565b50600191820154908201553360008181526005602090815260409182902080548501905592860154815190815290519193507f8644b0eb56c7a568d35c9f35feeacfcdb42c3cfe3deb99e35d6ac27df853a08c92908290030190a2505050565b60056020526000908152604090205481565b60025490565b6003602052600090815260409020805460019091015482565b6000546001600160a01b031681565b3360008181526003602052604080822080546001549251919492029283156108fc02918491818181858888f1935050505015801561057f573d6000803e3d6000fd5b505060009055565b600460205281600052604060002081815481106105a057fe5b60009182526020918290206002918202018054604080516001831615610100026000190190921693909304601f8101859004850282018501909352828152909450925083918301828280156103505780601f1061032557610100808354040283529160200191610350565b828054600181600116156101000203166002900490600052602060002090601f016020900481019282601f106106445780548555610680565b8280016001018555821561068057600052602060002091601f016020900482015b82811115610680578254825591600101919060010190610665565b5061068c929150610690565b5090565b61037591905b8082111561068c576000815560010161069656fe596f75206e65656420746f20626520746865206f776e657220746f20746865204169726c696e65a265627a7a72305820e4c2f1230630d8ec5b88ab8736945edc31f41a268ccbc66c65f4f1d1ce35c91b64736f6c634300050a0032405787fa12a823e0f2b7631cc41b3ba8828b3321ca811111fa75cd3aa3bb5ace",
    "sourcePath": "/Users/ivan/Documents/GitHub/BlockChain-With-Ethereum/flights-App/contracts/Airline.sol",
    "compiler": {
        "name": "solc",
        "version": "0.5.10+commit.5a6ea5b1"
    },
    "functionHashes": {
        "buyFlights(uint256)": "3b2240a0",
        "customerTotalFligthsMapping(address)": "45d66359",
        "customersMapping(address)": "88aff306",
        "flights(uint256)": "15ccf70f",
        "fligthsMapping(address,uint256)": "ff5d0b8a",
        "getAirlineBalance()": "29cd30b4",
        "getRefundableEther()": "2411ff73",
        "owner()": "8da5cb5b",
        "redeemLoyaltyPoints()": "f997114f",
        "totalFlights()": "4bf02e7a"
    },
    "gasEstimates": {
        "creation": {
            "codeDepositCost": "359600",
            "executionCost": "infinite",
            "totalCost": "infinite"
        },
        "external": {
            "buyFlights(uint256)": "infinite",
            "customerTotalFligthsMapping(address)": "613",
            "customersMapping(address)": "785",
            "flights(uint256)": "infinite",
            "fligthsMapping(address,uint256)": "infinite",
            "getAirlineBalance()": "infinite",
            "getRefundableEther()": "698",
            "owner()": "481",
            "redeemLoyaltyPoints()": "infinite",
            "totalFlights()": "398"
        }
    }
}