{
  "contractName": "Airline",
  "abi": [
    {
      "constant": true,
      "inputs": [
        {
          "name": "",
          "type": "uint256"
        }
      ],
      "name": "flights",
      "outputs": [
        {
          "name": "name",
          "type": "string"
        },
        {
          "name": "price",
          "type": "uint256"
        }
      ],
      "payable": false,
      "stateMutability": "view",
      "type": "function"
    },
    {
      "constant": true,
      "inputs": [],
      "name": "owner",
      "outputs": [
        {
          "name": "",
          "type": "address"
        }
      ],
      "payable": false,
      "stateMutability": "view",
      "type": "function"
    },
    {
      "inputs": [],
      "payable": false,
      "stateMutability": "nonpayable",
      "type": "constructor"
    },
    {
      "anonymous": false,
      "inputs": [
        {
          "indexed": true,
          "name": "customer",
          "type": "address"
        },
        {
          "indexed": false,
          "name": "price",
          "type": "uint256"
        }
      ],
      "name": "FlightPurchased",
      "type": "event"
    },
    {
      "constant": false,
      "inputs": [
        {
          "name": "fligthIndex",
          "type": "uint256"
        }
      ],
      "name": "buyFlights",
      "outputs": [],
      "payable": true,
      "stateMutability": "payable",
      "type": "function"
    },
    {
      "constant": true,
      "inputs": [],
      "name": "totalFlights",
      "outputs": [
        {
          "name": "",
          "type": "uint256"
        }
      ],
      "payable": false,
      "stateMutability": "view",
      "type": "function"
    },
    {
      "constant": false,
      "inputs": [],
      "name": "redeemLoyaltyPoints",
      "outputs": [],
      "payable": false,
      "stateMutability": "nonpayable",
      "type": "function"
    },
    {
      "constant": true,
      "inputs": [],
      "name": "getRefundableEther",
      "outputs": [
        {
          "name": "",
          "type": "uint256"
        }
      ],
      "payable": false,
      "stateMutability": "view",
      "type": "function"
    },
    {
      "constant": true,
      "inputs": [],
      "name": "getAirlineBalance",
      "outputs": [
        {
          "name": "",
          "type": "uint256"
        }
      ],
      "payable": false,
      "stateMutability": "view",
      "type": "function"
    }
  ],
  "bytecode": "0x60806040526706f05b59d3b2000060015534801561001c57600080fd5b50336000806101000a81548173ffffffffffffffffffffffffffffffffffffffff021916908373ffffffffffffffffffffffffffffffffffffffff160217905550600260408051908101604052806040805190810160405280600781526020017f45737061c3b161000000000000000000000000000000000000000000000000008152508152602001673782dace9d9000008152509080600181540180825580915050906001820390600052602060002090600202016000909192909190915060008201518160000190805190602001906100f8929190610306565b5060208201518160010155505050600260408051908101604052806040805190810160405280600781526020017f56656e65636961000000000000000000000000000000000000000000000000008152508152602001671bc16d674ec800008152509080600181540180825580915050906001820390600052602060002090600202016000909192909190915060008201518160000190805190602001906101a1929190610306565b5060208201518160010155505050600260408051908101604052806040805190810160405280600c81526020017f546f6d6f72726f776c616e64000000000000000000000000000000000000000081525081526020016729a2241af62c000081525090806001815401808255809150509060018203906000526020600020906002020160009091929091909150600082015181600001908051906020019061024a929190610306565b5060208201518160010155505050600260408051908101604052806040805190810160405280600981526020017f50616c6f20416c746f00000000000000000000000000000000000000000000008152508152602001678ac7230489e800008152509080600181540180825580915050906001820390600052602060002090600202016000909192909190915060008201518160000190805190602001906102f3929190610306565b50602082015181600101555050506103ab565b828054600181600116156101000203166002900490600052602060002090601f016020900481019282601f1061034757805160ff1916838001178555610375565b82800160010185558215610375579182015b82811115610374578251825591602001919060010190610359565b5b5090506103829190610386565b5090565b6103a891905b808211156103a457600081600090555060010161038c565b5090565b90565b610868806103ba6000396000f300608060405260043610610083576000357c0100000000000000000000000000000000000000000000000000000000900463ffffffff16806315ccf70f146100885780632411ff731461013557806329cd30b4146101605780633b2240a01461018b5780634bf02e7a146101ab5780638da5cb5b146101d6578063f997114f1461022d575b600080fd5b34801561009457600080fd5b506100b360048036038101908080359060200190929190505050610244565b6040518080602001838152602001828103825284818151815260200191508051906020019080838360005b838110156100f95780820151818401526020810190506100de565b50505050905090810190601f1680156101265780820380516001836020036101000a031916815260200191505b50935050505060405180910390f35b34801561014157600080fd5b5061014a61030f565b6040518082815260200191505060405180910390f35b34801561016c57600080fd5b50610175610362565b6040518082815260200191505060405180910390f35b6101a960048036038101908080359060200190929190505050610470565b005b3480156101b757600080fd5b506101c06106ba565b6040518082815260200191505060405180910390f35b3480156101e257600080fd5b506101eb6106c7565b604051808273ffffffffffffffffffffffffffffffffffffffff1673ffffffffffffffffffffffffffffffffffffffff16815260200191505060405180910390f35b34801561023957600080fd5b506102426106ec565b005b60028181548110151561025357fe5b9060005260206000209060020201600091509050806000018054600181600116156101000203166002900480601f0160208091040260200160405190810160405280929190818152602001828054600181600116156101000203166002900480156102ff5780601f106102d4576101008083540402835291602001916102ff565b820191906000526020600020905b8154815290600101906020018083116102e257829003601f168201915b5050505050908060010154905082565b600080600360003373ffffffffffffffffffffffffffffffffffffffff1673ffffffffffffffffffffffffffffffffffffffff168152602001908152602001600020905080600001546001540291505090565b6000806000809054906101000a900473ffffffffffffffffffffffffffffffffffffffff1673ffffffffffffffffffffffffffffffffffffffff163373ffffffffffffffffffffffffffffffffffffffff1614151561044f576040517f08c379a00000000000000000000000000000000000000000000000000000000081526004018080602001828103825260278152602001807f596f75206e65656420746f20626520746865206f776e657220746f207468652081526020017f4169726c696e650000000000000000000000000000000000000000000000000081525060400191505060405180910390fd5b3090508073ffffffffffffffffffffffffffffffffffffffff163191505090565b60008060028381548110151561048257fe5b9060005260206000209060020201915081600101543414151561050d576040517f08c379a00000000000000000000000000000000000000000000000000000000081526004018080602001828103825260148152602001807f4e6f7420456e6f75676874205175616e7469747900000000000000000000000081525060200191505060405180910390fd5b600360003373ffffffffffffffffffffffffffffffffffffffff1673ffffffffffffffffffffffffffffffffffffffff16815260200190815260200160002090506005816000016000828254019250508190555060018160010160008282540192505081905550600460003373ffffffffffffffffffffffffffffffffffffffff1673ffffffffffffffffffffffffffffffffffffffff168152602001908152602001600020829080600181540180825580915050906001820390600052602060002090600202016000909192909190915060008201816000019080546001816001161561010002031660029004610606929190610790565b5060018201548160010155505050600560003373ffffffffffffffffffffffffffffffffffffffff1673ffffffffffffffffffffffffffffffffffffffff168152602001908152602001600020600081548092919060010191905055503373ffffffffffffffffffffffffffffffffffffffff167f8644b0eb56c7a568d35c9f35feeacfcdb42c3cfe3deb99e35d6ac27df853a08c83600101546040518082815260200191505060405180910390a2505050565b6000600280549050905090565b6000809054906101000a900473ffffffffffffffffffffffffffffffffffffffff1681565b600080600360003373ffffffffffffffffffffffffffffffffffffffff1673ffffffffffffffffffffffffffffffffffffffff168152602001908152602001600020915081600001546001540290503373ffffffffffffffffffffffffffffffffffffffff166108fc829081150290604051600060405180830381858888f19350505050158015610781573d6000803e3d6000fd5b50600082600001819055505050565b828054600181600116156101000203166002900490600052602060002090601f016020900481019282601f106107c95780548555610806565b8280016001018555821561080657600052602060002091601f016020900482015b828111156108055782548255916001019190600101906107ea565b5b5090506108139190610817565b5090565b61083991905b8082111561083557600081600090555060010161081d565b5090565b905600a165627a7a72305820103069de32f8fb3f70b5e2f534d39cb9a56027a215d04800b9f0c85698c752bc0029",
  "source": "pragma solidity >=0.4.24;\n\ncontract Airline {\n\n    address public owner;\n\n    struct Customer {\n        uint loyalty_points;\n        uint total_flights;\n    }\n\n    struct Fligths {\n        string name;\n        uint price;\n    }\n\n    uint etherRP = 0.5 ether;\n\n    Fligths[] public flights;\n    mapping(address => Customer) private customersMapping;\n    mapping(address => Fligths[]) private fligthsMapping;\n    mapping(address => uint) private customerTotalFligthsMapping;\n    event FlightPurchased(address indexed customer, uint price);\n\n    constructor() public {\n        owner = msg.sender;\n        //Primer requisito cumplido, poseer vuelos iniciales disponibles de forma pública\n        flights.push(Fligths('España',4 ether));\n        flights.push(Fligths('Venecia',2 ether));\n        flights.push(Fligths('Tomorrowland',3 ether));\n        flights.push(Fligths('Palo Alto',10 ether));\n    }\n\n    function buyFlights(uint fligthIndex) public payable {\n        Fligths storage fligthSelected = flights[fligthIndex];\n        require(msg.value == fligthSelected.price, \"Not Enought Quantity\");\n        Customer storage  user = customersMapping[msg.sender];\n        //Segundo requisito cumplido sumar 5 royal points por cada compra a el cliente\n        user.loyalty_points += 5;\n        user.total_flights += 1;\n        fligthsMapping[msg.sender].push(fligthSelected);\n        customerTotalFligthsMapping[msg.sender]++;\n        emit FlightPurchased(msg.sender,fligthSelected.price);\n    }\n\n    function totalFlights() public view returns(uint) {\n        return flights.length;\n    }\n\n    //Clientes puedan recuperar dinero a partir de RP\n    function redeemLoyaltyPoints() public {\n        Customer storage customer = customersMapping[msg.sender];\n        uint etherToRP = etherRP * customer.loyalty_points;\n        msg.sender.transfer(etherToRP);\n        customer.loyalty_points = 0;\n    }\n\n    //Recuperar los RP por parte del cliente\n    function getRefundableEther() public view returns(uint) {\n        Customer storage customer = customersMapping[msg.sender];\n        return etherRP * customer.loyalty_points;\n    }\n\n    //Recuperar el balance de la aerolínea\n    function getAirlineBalance() public isOwner view returns(uint) {\n        address airlineAddress = address(this);\n        return airlineAddress.balance;\n    }\n\n    modifier isOwner() {\n        require(msg.sender == owner,\"You need to be the owner to the Airline\");\n        _;\n    }\n\n}",
  "sourcePath": "/Users/ivan/Documents/GitHub/BlockChain-With-Ethereum/flights-App/contracts/Airline.sol",
  "compiler": {
    "name": "solc",
    "version": "0.4.25+commit.59dbf8f1.Emscripten.clang"
  },
  "schemaVersion": "2.0.2",
  "updatedAt": "2019-08-02T14:24:16.562Z"
}