{
  "contractName": "Airline",
  "abi": [
    {
      "constant": true,
      "inputs": [
        {
          "name": "",
          "type": "uint256"
        }
      ],
      "name": "flights",
      "outputs": [
        {
          "name": "name",
          "type": "string"
        },
        {
          "name": "price",
          "type": "uint256"
        }
      ],
      "payable": false,
      "stateMutability": "view",
      "type": "function"
    },
    {
      "constant": true,
      "inputs": [
        {
          "name": "",
          "type": "address"
        }
      ],
      "name": "customerTotalFligthsMapping",
      "outputs": [
        {
          "name": "",
          "type": "uint256"
        }
      ],
      "payable": false,
      "stateMutability": "view",
      "type": "function"
    },
    {
      "constant": true,
      "inputs": [
        {
          "name": "",
          "type": "address"
        }
      ],
      "name": "customersMapping",
      "outputs": [
        {
          "name": "loyalty_points",
          "type": "uint256"
        },
        {
          "name": "total_flights",
          "type": "uint256"
        }
      ],
      "payable": false,
      "stateMutability": "view",
      "type": "function"
    },
    {
      "constant": true,
      "inputs": [],
      "name": "owner",
      "outputs": [
        {
          "name": "",
          "type": "address"
        }
      ],
      "payable": false,
      "stateMutability": "view",
      "type": "function"
    },
    {
      "constant": true,
      "inputs": [
        {
          "name": "",
          "type": "address"
        },
        {
          "name": "",
          "type": "uint256"
        }
      ],
      "name": "fligthsMapping",
      "outputs": [
        {
          "name": "name",
          "type": "string"
        },
        {
          "name": "price",
          "type": "uint256"
        }
      ],
      "payable": false,
      "stateMutability": "view",
      "type": "function"
    },
    {
      "inputs": [],
      "payable": false,
      "stateMutability": "nonpayable",
      "type": "constructor"
    },
    {
      "anonymous": false,
      "inputs": [
        {
          "indexed": true,
          "name": "customer",
          "type": "address"
        },
        {
          "indexed": false,
          "name": "price",
          "type": "uint256"
        },
        {
          "indexed": false,
          "name": "flight",
          "type": "string"
        }
      ],
      "name": "FlightPurchased",
      "type": "event"
    },
    {
      "constant": false,
      "inputs": [
        {
          "name": "fligthIndex",
          "type": "uint256"
        }
      ],
      "name": "buyFlights",
      "outputs": [],
      "payable": true,
      "stateMutability": "payable",
      "type": "function"
    },
    {
      "constant": true,
      "inputs": [],
      "name": "totalFlights",
      "outputs": [
        {
          "name": "",
          "type": "uint256"
        }
      ],
      "payable": false,
      "stateMutability": "view",
      "type": "function"
    },
    {
      "constant": false,
      "inputs": [],
      "name": "redeemLoyaltyPoints",
      "outputs": [],
      "payable": false,
      "stateMutability": "nonpayable",
      "type": "function"
    },
    {
      "constant": true,
      "inputs": [],
      "name": "getRefundableEther",
      "outputs": [
        {
          "name": "",
          "type": "uint256"
        }
      ],
      "payable": false,
      "stateMutability": "view",
      "type": "function"
    },
    {
      "constant": true,
      "inputs": [],
      "name": "getAirlineBalance",
      "outputs": [
        {
          "name": "",
          "type": "uint256"
        }
      ],
      "payable": false,
      "stateMutability": "view",
      "type": "function"
    }
  ],
  "bytecode": "0x60806040526706f05b59d3b2000060015534801561001c57600080fd5b50336000806101000a81548173ffffffffffffffffffffffffffffffffffffffff021916908373ffffffffffffffffffffffffffffffffffffffff160217905550600260408051908101604052806040805190810160405280600781526020017f45737061c3b1610000000000000000000000000000000000000000000000000081525081526020016729a2241af62c00008152509080600181540180825580915050906001820390600052602060002090600202016000909192909190915060008201518160000190805190602001906100f8929190610306565b5060208201518160010155505050600260408051908101604052806040805190810160405280600781526020017f56656e656369610000000000000000000000000000000000000000000000000081525081526020016729a2241af62c00008152509080600181540180825580915050906001820390600052602060002090600202016000909192909190915060008201518160000190805190602001906101a1929190610306565b5060208201518160010155505050600260408051908101604052806040805190810160405280600c81526020017f546f6d6f72726f776c616e64000000000000000000000000000000000000000081525081526020016729a2241af62c000081525090806001815401808255809150509060018203906000526020600020906002020160009091929091909150600082015181600001908051906020019061024a929190610306565b5060208201518160010155505050600260408051908101604052806040805190810160405280600981526020017f50616c6f20416c746f00000000000000000000000000000000000000000000008152508152602001678ac7230489e800008152509080600181540180825580915050906001820390600052602060002090600202016000909192909190915060008201518160000190805190602001906102f3929190610306565b50602082015181600101555050506103ab565b828054600181600116156101000203166002900490600052602060002090601f016020900481019282601f1061034757805160ff1916838001178555610375565b82800160010185558215610375579182015b82811115610374578251825591602001919060010190610359565b5b5090506103829190610386565b5090565b6103a891905b808211156103a457600081600090555060010161038c565b5090565b90565b610ba780620003bb6000396000f3006080604052600436106100a4576000357c0100000000000000000000000000000000000000000000000000000000900463ffffffff16806315ccf70f146100a95780632411ff731461015657806329cd30b4146101815780633b2240a0146101ac57806345d66359146101cc5780634bf02e7a1461022357806388aff3061461024e5780638da5cb5b146102ac578063f997114f14610303578063ff5d0b8a1461031a575b600080fd5b3480156100b557600080fd5b506100d4600480360381019080803590602001909291905050506103e7565b6040518080602001838152602001828103825284818151815260200191508051906020019080838360005b8381101561011a5780820151818401526020810190506100ff565b50505050905090810190601f1680156101475780820380516001836020036101000a031916815260200191505b50935050505060405180910390f35b34801561016257600080fd5b5061016b6104b2565b6040518082815260200191505060405180910390f35b34801561018d57600080fd5b50610196610500565b6040518082815260200191505060405180910390f35b6101ca6004803603810190808035906020019092919050505061060e565b005b3480156101d857600080fd5b5061020d600480360381019080803573ffffffffffffffffffffffffffffffffffffffff1690602001909291905050506108e5565b6040518082815260200191505060405180910390f35b34801561022f57600080fd5b506102386108fd565b6040518082815260200191505060405180910390f35b34801561025a57600080fd5b5061028f600480360381019080803573ffffffffffffffffffffffffffffffffffffffff16906020019092919050505061090a565b604051808381526020018281526020019250505060405180910390f35b3480156102b857600080fd5b506102c161092e565b604051808273ffffffffffffffffffffffffffffffffffffffff1673ffffffffffffffffffffffffffffffffffffffff16815260200191505060405180910390f35b34801561030f57600080fd5b50610318610953565b005b34801561032657600080fd5b50610365600480360381019080803573ffffffffffffffffffffffffffffffffffffffff169060200190929190803590602001909291905050506109f7565b6040518080602001838152602001828103825284818151815260200191508051906020019080838360005b838110156103ab578082015181840152602081019050610390565b50505050905090810190601f1680156103d85780820380516001836020036101000a031916815260200191505b50935050505060405180910390f35b6002818154811015156103f657fe5b9060005260206000209060020201600091509050806000018054600181600116156101000203166002900480601f0160208091040260200160405190810160405280929190818152602001828054600181600116156101000203166002900480156104a25780601f10610477576101008083540402835291602001916104a2565b820191906000526020600020905b81548152906001019060200180831161048557829003601f168201915b5050505050908060010154905082565b6000600360003373ffffffffffffffffffffffffffffffffffffffff1673ffffffffffffffffffffffffffffffffffffffff1681526020019081526020016000206000015460015402905090565b6000806000809054906101000a900473ffffffffffffffffffffffffffffffffffffffff1673ffffffffffffffffffffffffffffffffffffffff163373ffffffffffffffffffffffffffffffffffffffff161415156105ed576040517f08c379a00000000000000000000000000000000000000000000000000000000081526004018080602001828103825260278152602001807f596f75206e65656420746f20626520746865206f776e657220746f207468652081526020017f4169726c696e650000000000000000000000000000000000000000000000000081525060400191505060405180910390fd5b3090508073ffffffffffffffffffffffffffffffffffffffff163191505090565b60008060028381548110151561062057fe5b906000526020600020906002020191508160010154341415156106ab576040517f08c379a00000000000000000000000000000000000000000000000000000000081526004018080602001828103825260148152602001807f4e6f7420456e6f75676874205175616e7469747900000000000000000000000081525060200191505060405180910390fd5b600360003373ffffffffffffffffffffffffffffffffffffffff1673ffffffffffffffffffffffffffffffffffffffff16815260200190815260200160002090506005816000016000828254019250508190555060018160010160008282540192505081905550600460003373ffffffffffffffffffffffffffffffffffffffff1673ffffffffffffffffffffffffffffffffffffffff1681526020019081526020016000208290806001815401808255809150509060018203906000526020600020906002020160009091929091909150600082018160000190805460018160011615610100020316600290046107a4929190610acf565b5060018201548160010155505050600560003373ffffffffffffffffffffffffffffffffffffffff1673ffffffffffffffffffffffffffffffffffffffff168152602001908152602001600020600081548092919060010191905055503373ffffffffffffffffffffffffffffffffffffffff167f1a02c9b180301ecb4108648e8e1cd231f2857cc169519367000f7380f57566c483600101548460000160405180838152602001806020018281038252838181546001816001161561010002031660029004815260200191508054600181600116156101000203166002900480156108d15780601f106108a6576101008083540402835291602001916108d1565b820191906000526020600020905b8154815290600101906020018083116108b457829003601f168201915b5050935050505060405180910390a2505050565b60056020528060005260406000206000915090505481565b6000600280549050905090565b60036020528060005260406000206000915090508060000154908060010154905082565b6000809054906101000a900473ffffffffffffffffffffffffffffffffffffffff1681565b600080600360003373ffffffffffffffffffffffffffffffffffffffff1673ffffffffffffffffffffffffffffffffffffffff168152602001908152602001600020915081600001546001540290503373ffffffffffffffffffffffffffffffffffffffff166108fc829081150290604051600060405180830381858888f193505050501580156109e8573d6000803e3d6000fd5b50600082600001819055505050565b600460205281600052604060002081815481101515610a1257fe5b906000526020600020906002020160009150915050806000018054600181600116156101000203166002900480601f016020809104026020016040519081016040528092919081815260200182805460018160011615610100020316600290048015610abf5780601f10610a9457610100808354040283529160200191610abf565b820191906000526020600020905b815481529060010190602001808311610aa257829003601f168201915b5050505050908060010154905082565b828054600181600116156101000203166002900490600052602060002090601f016020900481019282601f10610b085780548555610b45565b82800160010185558215610b4557600052602060002091601f016020900482015b82811115610b44578254825591600101919060010190610b29565b5b509050610b529190610b56565b5090565b610b7891905b80821115610b74576000816000905550600101610b5c565b5090565b905600a165627a7a7230582033ee1c5793f7ab15df5c8f888c633f4b4edccc8f8b3fa4723776f2c60062e09d0029",
  "source": "pragma solidity >=0.4.24;\n\ncontract Airline {\n\n    address public owner;\n\n    struct Customer {\n        uint loyalty_points;\n        uint total_flights;\n    }\n\n    struct Fligths {\n        string name;\n        uint price;\n    }\n\n    uint etherRP = 0.5 ether;\n\n    Fligths[] public flights;\n    mapping(address => Customer) public customersMapping;\n    mapping(address => Fligths[]) public fligthsMapping;\n    mapping(address => uint) public customerTotalFligthsMapping;\n\n    //se emite cuando se compra un vuelo\n    event FlightPurchased(address indexed customer, uint price,string flight);\n\n\n\n    constructor() public {\n        owner = msg.sender;\n        //Primer requisito cumplido, poseer vuelos iniciales disponibles de forma pública\n        flights.push(Fligths('España',3 ether));\n        flights.push(Fligths('Venecia',3 ether));\n        flights.push(Fligths('Tomorrowland',3 ether));\n        flights.push(Fligths('Palo Alto',10 ether));\n    }\n\n    function buyFlights(uint fligthIndex) public payable {\n        Fligths storage fligthSelected = flights[fligthIndex];\n        require(msg.value == fligthSelected.price, \"Not Enought Quantity\");\n        Customer storage  user = customersMapping[msg.sender];\n        //Segundo requisito cumplido sumar 5 royal points por cada compra a el cliente\n        user.loyalty_points += 5;\n        user.total_flights += 1;\n        fligthsMapping[msg.sender].push(fligthSelected);\n        customerTotalFligthsMapping[msg.sender]++;\n        emit FlightPurchased(msg.sender,fligthSelected.price,fligthSelected.name);\n    }\n\n    function totalFlights() public view returns(uint) {\n        return flights.length;\n    }\n\n    //Clientes puedan recuperar dinero a partir de RP\n    function redeemLoyaltyPoints() public {\n        Customer storage customer = customersMapping[msg.sender];\n        uint etherToRP = etherRP * customer.loyalty_points;\n        msg.sender.transfer(etherToRP);\n        customer.loyalty_points = 0;\n    }\n\n    //Recuperar los RP por parte del cliente\n    function getRefundableEther() public view returns(uint) {\n        return etherRP * customersMapping[msg.sender].loyalty_points;\n    }\n\n    //Recuperar el balance de la aerolínea\n    function getAirlineBalance() public isOwner view returns(uint) {\n        address airlineAddress = address(this);\n        return airlineAddress.balance;\n    }\n\n    modifier isOwner() {\n        require(msg.sender == owner,\"You need to be the owner to the Airline\");\n        _;\n    }\n\n}",
  "sourcePath": "/Users/ivan/Documents/GitHub/BlockChain-With-Ethereum/Airline/contracts/Airline.sol",
  "compiler": {
    "name": "solc",
    "version": "0.4.25+commit.59dbf8f1.Emscripten.clang"
  },
  "schemaVersion": "2.0.2",
  "updatedAt": "2019-08-05T17:29:08.500Z"
}